:060000000A128A11E42F30
:10000800F100F0013A307102031810283030710203
:10001800031C1028F001F00A700C08006E30FC0078
:100028007C08FD006E307D06031D20280A128A1503
:100038009C260A128A111328831203135308803A44
:10004800FF0080307F02031D2B2802305202031864
:100058003E287D08FC00831203135208C63E840024
:100068007C08831380000130D2070318D30A0030BC
:10007800D3070429831203135508803AFF00803000
:100088007F02031D49280230540203185C287D08AA
:10009800FC00831203135408CB3E84007C088313AE
:1000A80080000130D4070318D50A0030D507042989
:1000B800831203135708803AFF0080307F02031D24
:1000C80067280230560203187A287D08FC0083123C
:1000D80003135608D03E84007C0883138000013047
:1000E800D6070318D70A0030D70704298312031349
:1000F8005908803AFF0080307F02031D85280130AF
:100108005802031CDF280429F530F0008930F1007B
:10011800BC300A168A154A240A128A11F628ED30CC
:10012800F0008930F100BC300A168A154A240A12F8
:100138008A11F628E930F0008930F100BC300A163F
:100148008A154A240A128A11F6280130F0008A30EA
:10015800F100BC300A168A154A240A128A11F628B8
:10016800F130F0008930F100BC300A168A154A24B3
:100178000A128A11F628FD30F0008930F100BC30EF
:100188000A168A154A240A128A11F628F930F0004C
:100198008930F100BC300A168A154A240A128A11DD
:1001A800F628E530F5008930F6000A168A15A426E7
:1001B8000A128A11F6287D08313A03198828033A69
:1001C80003199328013A03199E28073A0319A92805
:1001D800013A0319B428033A0319BF28013A03194D
:1001E800CA28D528013083120313D8070318D90A5F
:1001F8000030D9077D08FC007C0883160313DA0059
:100208007D08080083120313A000F401F40A0230E9
:100218000A168A156B270A128A110A30F000003074
:10022800F10083120313200A840083130008FC00E2
:10023800FD017C08F2007D08F3000A168A110F20E0
:100248000A128A117008303E0A168A152F260A12D9
:100258008A110230FC007C08F40002300A168A1564
:100268006B270A128A110A30F0000030F10083125D
:100278000313200A840083130008FC00FD017C0896
:10028800F2007D08F3000A168A15B5270A128A11AA
:100298007008303E0A168A152F260A128A11033072
:1002A800FC007C08F40002300A168A156B270A1233
:1002B8008A112F300A168A152F260A128A1104303D
:1002C800FC007C08F40002300A168A156B270A1213
:1002D8008A110A30F0000030F1008312031320085D
:1002E800023E840083130008FC00FD017C08F20034
:1002F8007D08F3000A168A110F200A128A11700865
:10030800303E0A168A152F260A128A110530FC007B
:100318007C08F40002300A168A156B270A128A1123
:100328000A30F0000030F100831203132008023E67
:10033800840083130008FC00FD017C08F2007D089E
:10034800F3000A168A15B5270A128A117008303E7A
:100358000A168A152F260A128A110630FC007C0814
:10036800F40002300A168A156B270A128A112F30F8
:100378000A168A152F260A128A110730FC007C08F3
:10038800F40002300A168A156B270A128A110A30FD
:10039800F0000030F100831203132008033E8400AC
:1003A80083130008FC00FD017C08F2007D08F300BF
:1003B8000A168A110F200A128A117008303E0A168E
:1003C8008A152F260A128A110830FC007C08F400CE
:1003D80002300A168A156B270A128A110A30F000B1
:1003E8000030F100831203132008033E84008313B6
:1003F8000008FC00FD017C08F2007D08F3000A16E5
:100408008A15B5270A128A117008303E0A168A150D
:100418002F260A128A110930FC007C08F4000230E9
:100428000A168A156B270A128A1120300A168A15AD
:100438002F260A128A110A30FC007C08F4000230C8
:100448000A168A156B270A128A116A2AF530F500EE
:100458008930F6000A168A15A4260800ED30F50042
:100468008930F6000A168A15A4260800E930F50036
:100478008930F6000A168A15A42608000130F5000E
:100488008A30F6000A168A15A4260800F130F5000D
:100498008930F6000A168A15A4260800FD30F500F2
:1004A8008930F6000A168A15A4260800F930F500E6
:1004B8008930F6000A168A15A4260800E530F500EA
:1004C8008930F6000A168A15A42608008312031339
:1004D8002008840083130008013A03192A2A033AE2
:1004E8000319322A013A03193A2A073A0319422A08
:1004F800013A03194A2A033A0319522A013A0319FD
:100508005A2A622A08006E3083120313BA003A0886
:10051800BD000A168A1554250A128A11FF3083165F
:100528000313850088018312031388010A168A15AC
:100538000D230A128A1104308316031389008312CB
:10054800031309108914FF308316031387008312DD
:10055800031308100A168A153C230A128A110A1670
:100568008A1102200A128A118312031309108914AE
:100578000A168A11C1200A128A110A168A1531230D
:100588000A128A11F401F40A01300A168A156B2737
:100598000A128A118430F5008930F6000A168A1585
:1005A800A4260A128A11F401F40A02300A168A15DE
:1005B8006B270A128A116930F5008830F6000A168E
:1005C8008A15A4260A128A1183120313881410307C
:1005D800BC003930BB001B30BA00BA0BF12ABB0B88
:1005E800F12ABC0BF12AF82A831203138810103061
:1005F800BC003930BB001B30BA00BA0B012BBB0B57
:10060800012BBC0B012B082B0A168A1531230A1261
:100618008A11F401F40A01300A168A156B270A12A6
:100628008A118B30F5008830F6000A168A15A42640
:100638000A128A11153083120313BC004B30BB0019
:10064800D130BA00BA0B262BBB0B262BBC0B262BA2
:1006580000000A168A1531230A128A1104308312FF
:100668000313BC000C30BB003530BA00BA0B3A2B70
:10067800BB0B3A2BBC0B3A2B412BF401F40A01308B
:100688000A168A156B270A128A118B30F5008830F2
:10069800F6000A168A15A4260A128A111530831242
:1006A8000313BC004B30BB00D130BA00BA0B5A2B35
:1006B800BB0B5A2BBC0B5A2B00000A168A15312388
:1006C8000A128A11043083120313BC000C30BB00D9
:1006D8003530BA00BA0B6E2BBB0B6E2BBC0B6E2BD6
:1006E800752BF401F40A01300A168A156B270A12D1
:1006F8008A118B30F5008830F6000A168A15A42670
:100708000A128A11153083120313BC004B30BB0048
:10071800D130BA00BA0B8E2BBB0B8E2BBC0B8E2B99
:1007280000000A168A1531230A128A11043083122E
:100738000313BC000C30BB003530BA00BA0BA22B37
:10074800BB0BA22BBC0BA22BA92BF401F40A013082
:100758000A168A156B270A128A11DF30F5008930CC
:10076800F6000A168A15A4260A128A11F401F40A58
:1007780002300A168A156B270A128A11CB30F50047
:100788008830F6000A168A15A4260A128A110A1653
:100798008A15BF240A128A1183120313BA003A0871
:1007A800BD002F303D06031DDE2B0A128A111624C8
:1007B8000A128A110A168A1531230A128A1104307C
:1007C80083120313BC000C30BB003530BA00BA0BDF
:1007D800EB2BBB0BEB2BBC0BEB2BF22BF401F40A32
:1007E80001300A168A156B270A128A113330F50070
:1007F8008930F6000A168A15A4260A128A1183126D
:1008080003130814091489101530BC004B30BB00C1
:10081800D130BA00BA0B0E2CBB0B0E2CBC0B0E2C15
:10082800000008006E3083120313B2003208B800CB
:100838006E30B2003208B9000A168A1531230A123E
:100848008A11F401F40A01300A168A156B270A1274
:100858008A11DB30F5008830F6000A168A15A426BE
:100868000A128A11F401F40A02300A168A156B2753
:100878000A128A117A30F5008830F6000A168A15AD
:10088800A4260A128A110A168A1555230A128A11F1
:1008980083120313B2003208B8009E2F0A168A1575
:1008A80031230A128A11F401F40A01300A168A1552
:1008B8006B270A128A117730F5008930F6000A167C
:1008C8008A15A4260A128A110B3083120313B40066
:1008D8002630B3006630B200B20B702CB30B702C0C
:1008E800B40B702C772C0A168A1531230A128A1138
:1008F8000A168A1509240A128A1183120313B200F0
:100908003208B9000A168A1531230A128A110830EA
:1009180083120313B2003208F40001300A168A1554
:100928006B270A128A118312031339080A168A15CB
:100938002F260A128A11F401F40A02300A168A15BF
:100948006B270A128A11AD30F5000030F6000A163E
:100958008A15A4260A128A110C308312031368061A
:100968006904031D7C2C0A168A1531230A128A1180
:10097800F401F40A01300A168A156B270A128A1143
:10098800BB30F5008830F6000A168A15A4260A122C
:100998008A11023083120313B2003208F4000230C5
:1009A8000A168A156B270A128A11AD30F500003035
:1009B800F6000A168A15A4260A128A110A168A153A
:1009C80089250A128A11153083120313B4004B309B
:1009D800B300D130B200B20BEF2CB30BEF2CB40B39
:1009E800EF2C0000AE2F0A168A1531230A128A113D
:1009F800F401F40A01300A168A156B270A128A11C3
:100A08000830F5008930F6000A168A15A4260A125D
:100A18008A11F401F40A02300A168A156B270A12A1
:100A28008A11EA30F5008830F6000A168A15A426DD
:100A38000A128A110A168A11F1220A128A118312DD
:100A48000313B2003208B9000A168A1531230A12B4
:100A58008A11083083120313B2003208F4000130FF
:100A68000A168A156B270A128A118312031339088A
:100A78000A168A152F260A128A11F401F40A02307E
:100A88000A168A156B270A128A11A83083120313D3
:100A9800A0008930A100DF30B2003208A200E430A3
:100AA800B3003308A300E930B4003408A400D530FB
:100AB800B5003508A50090300A128A15DC220A1202
:100AC8008A119030F5000130F6000A168A15A4261E
:100AD8000A128A1103308312031350065104031DAE
:100AE8001E2D0A168A1531230A128A11F401F40AF6
:100AF80001300A168A156B270A128A114130F5004F
:100B08008930F6000A168A15A4260A128A110230BC
:100B180083120313B2003208F40002300A168A1551
:100B28006B270A128A119030F5000130F6000A1678
:100B38008A15A4260A128A11153083120313B400E9
:100B48004B30B300D130B200B20BA82DB30BA82D97
:100B5800B40BA82D0000DF30F6000030F7000A16AD
:100B68008A110E240A128A11770883120313DF00F0
:100B78007608DE00E430F6000030F7000A168A1125
:100B88000E240A128A11770883120313E1007608EB
:100B9800E000E930F6000030F7000A168A110E244A
:100BA8000A128A11770883120313E3007608E20019
:100BB8003908B200B3013208F6003308F7000A1604
:100BC8008A110E240A128A11770883120313E3008C
:100BD8007608E2005E08B2003208F9006008B30047
:100BE8003308FA006208B4003408FB005C080A16EF
:100BF8008A113B250A128A110A168A1531230A120C
:100C08008A11AE2F0A168A1531230A128A11F401A5
:100C1800F40A01300A168A156B270A128A115D3008
:100C2800F5008930F6000A168A15A4260A128A11D8
:100C38000A128A1112200A128A1183120313B200AF
:100C48003208B9000A168A1531230A128A110830A7
:100C580083120313B2003208F40001300A168A1511
:100C68006B270A128A118312031339080A168A1588
:100C78002F260A128A11F401F40A02300A168A157C
:100C88006B270A128A119C3083120313A000893043
:100C9800A100C630B2003208A200CB30B30033083E
:100CA800A300D030B4003408A400BC30B500350827
:100CB800A50090300A128A15DC220A128A11903097
:100CC800F5000130F6000A168A15A4260A128A11C0
:100CD8008312031358035904031D1C2E0A168A1580
:100CE80031230A128A11F401F40A01300A168A150E
:100CF8006B270A128A114F30F5008930F6000A1660
:100D08008A15A4260A128A11023083120313B2002C
:100D18003208F40002300A168A156B270A128A1163
:100D28009030F5000130F6000A168A15A4260A123A
:100D38008A11153083120313B4004B30B300D1303D
:100D4800B200B20BA52EB30BA52EB40BA52E000036
:100D5800C630F6000030F7000A168A110E240A126F
:100D68008A11770883120313DB007608DA00CB3088
:100D7800F6000030F7000A168A110E240A128A11AA
:100D8800770883160313AA007608A900D030F60066
:100D98000030F7000A168A110E240A128A11770801
:100DA80083160313AC007608AB00DA30F600003087
:100DB800F7000A168A110E240A128A117708831678
:100DC8000313A8007608A700290883120313B200AA
:100DD8003208F900831603132B0883120313B30098
:100DE8003308FA0083160313270883120313B40089
:100DF8003408FB005A080A168A11FD250A128A11BE
:100E0800153083120313B4004B30B300D130B20055
:100E1800B20B0C2FB30B0C2FB40B0C2F0000AE2F02
:100E28000A168A1531230A128A11F401F40A0130CC
:100E38000A168A156B270A128A1183120313B60140
:100E4800B7010A168A1531230A128A11F401F40A25
:100E580001300A168A156B270A128A110A168A1196
:100E6800A0240A128A110A128A15FF230A128A116B
:100E78000A168A1189210A128A110A128A11062170
:100E88000A128A11103083120313B4003930B300E8
:100E98001B30B200B20B4E2FB30B4E2FB40B4E2F9C
:100EA800552F0A168A1531230A128A11F401F40AF9
:100EB80001300A168A156B270A128A11F930F500D3
:100EC8008830F6000A168A15A4260A128A11F40137
:100ED800F40A02300A168A156B270A128A11AD30F5
:100EE800F5000030F6000A168A15A4260A128A119F
:100EF800103083120313B4003930B3001B30B20032
:100F0800B20B842FB30B842FB40B842F8B2F01309B
:100F180083120313B6070318B70A0030B707033064
:100F280036063704031D252F0A168A1531230A129F
:100F38008A11AE2F831203133808313A0319522C41
:100F4800033A0319F72C013A0319062E073A031935
:100F5800142F162C0A168A1531230A128A11F40145
:100F6800F40A01300A168A156B270A128A11BE3054
:100F7800F5008930F6000A168A15A4260A128A1185
:100F8800F401F40A02300A168A156B270A128A112C
:100F9800D030F5008930F6000A168A15A4260A1200
:100FA8008A110A168A1555230A128A118312031305
:100FB800B2003208B8007830380603190800162C39
:100FC80083134A3084006F300A168A1505230A12E3
:100FD8008A11A0308400EE300A168A1505230A12F9
:100FE8008A11831790308400B4300A168A150523B5
:100FF80083010A168A11E52EFF1B0A2883137F181E
:1010080083170008840A0319FF0A08007F087F393C
:101018008A000408840A0319FF0A82000134003494
:101028000A34003464340034E83403341034273488
:10103800493427346D34203479346F34753472343C
:10104800203473346134663465347434793420342C
:10105800693472346F346E34203475346E346934C4
:1010680074342E34203455346E3465347834703406
:1010780065346334743465346434203473346934C7
:10108800743475346134743469346F346E34203494
:1010980068346134733420346F34633463347534A2
:1010A80072347234653464342E34203443346834F2
:1010B800653463346B3420346934743420344134F7
:1010C800533441345034213400342A342A342A34F5
:1010D8002A342A342A342A342A342A342A342A3418
:1010E8002A342A342A342A342A34003433343A3419
:1010F8004434613474346534203434343A345334E9
:1011080068346F34773449346E34663400342034AC
:1011180049346E3469347434693461346C346934F4
:101128007A3469346E3467342E34213400342034F0
:101138002034203453347734693474346334683455
:101148006534643420344F344634463400344134F2
:101158005634473450344F3457344534523420349D
:101168003D3420342534643420345734003420345A
:1011780045346E34743465347234653464342034E0
:101188004E3475346D346234653472340034463408
:101198003134203466346F34723420345334653437
:1011A8007434743469346E346734733400343134CD
:1011B8003A344E3475346D346234203432343A342F
:1011C800543469346D3465342034003441344D343A
:1011D80020342D3420343134203420342034203449
:1011E80050344D342D3432340034503468346F3434
:1011F8006E34653420344E3475346D34623465345D
:10120800723420343A340034483448343A344D3453
:101218004D343A34533453343A3441344D342F3402
:1012280050344D340034413454342B3443344D3429
:10123800473453343D3422342534733422340D3446
:1012480000344D3465347334733461346734653431
:101258002034533465346E347434213400342034EB
:10126800203420342034533477346934743463346C
:10127800683420344F344E340034203445346E34CE
:1012880074346534723465346434203454346934C5
:101298006D3465340034203445346E347434653428
:1012A80072346534643420344434613474346534BD
:1012B8000034443444343A344D344D343A34593497
:1012C80059343A34443441345934003420342034C5
:1012D80020342034203420343034253464343A34F3
:1012E80025346434003445346E34743465347234CF
:1012F80020346E3475346D3462346534723400349D
:101308002034203420342034573445344C3443348A
:101318004F344D34453400342034203420342034C4
:101328002034443441344E34473445345234003444
:10133800253473343A34253473343A3425347334C9
:101348002034253473340034253473343A34253446
:1013580073343A34253473343A34253473340034CE
:10136800413454342B3443344D34473446343D34BB
:1013780031340034463431343A34453464346934D1
:10138800743420340034203420342034203425347C
:101398006434203457340034463432343A344534D3
:1013A800783469347434003428346E3475346C34C9
:1013B8006C342934003450347234653473347334E3
:1013C80000343F343F343F340034573445344434D8
:1013D8000034543455344534003446345234493496
:1013E80000344D344F344E340034533455344E3475
:1013F800003453344134543400345434483455346C
:08140800003441344D3400347E
:10141200831203132008A6002108A7002208A800AF
:101422000310270D280DA9002908AA002A08031D68
:10143200212A0030A0000030A1000030A2000800E4
:101442002308A6002408A7002508A8000310270DDA
:10145200280DA9002908AF002F08031D372A0030E4
:10146200A0000030A1000030A20008002F087B3E3F
:10147200A6002608AA072008A6002108A70022081D
:10148200A80010300310A80CA70CA60CFF3E031DE9
:10149200432A2608A9002908AF002308A600240829
:1014A200A7002508A80010300310A80CA70CA60C52
:1014B200FF3E031D552A2608A9002908AF068030E1
:1014C200A6002608AF05A117A417FF30A305FF3019
:1014D200A4050030A5050030AB000030AC000030A0
:1014E200AD000730A6002608AE00201C862A23087D
:1014F200AB07240803110318240A031DAC072508AF
:1015020003110318250A031DAD0701300310A20CB5
:10151200A10CA00CFF3E031D872A01300310A30D6E
:10152200A40DA50DFF3E031D8F2A0130AE02031D3F
:10153200762A0930A6002608AE00201CAE2A23080F
:10154200AB07240803110318240A031DAC0725085E
:1015520003110318250A031DAD0701300310A20C65
:10156200A10CA00CFF3E031DAF2A01300310AD0CED
:10157200AC0CAB0CFF3E031DB72A0130AE02031DBB
:101582009E2A2B08F0002C08F1002D08F2002A08F0
:10159200A6002608F3002F08A7002708F4000A1661
:1015A2008A111D21700883120313A0007108A10083
:1015B2007208A200080083120313B0002230A600B2
:1015C2002608AB002108A7002008A600A00A0319DC
:1015D200A10A2708FF00260884000A128A150020A3
:1015E2000A128A15A8002808B10031080319FA2B3B
:1015F200253031060319092B3108A6003008840072
:101602002608831780000130A6002608B007E32AC7
:10161200A901422B2B08840083130008AC00003080
:10162200AD000130A6002608AB072C082D04031DCF
:101632001E2BD830AC008930AD002D08FF002C08DD
:1016420084000A128A1500200A128A15003A031928
:10165200E32A2D08FF002C0884000A128A150020B4
:101662000A128A15A6003008840026088317800013
:101672000130AC070318AD0A0130A6002608B007F6
:101682001E2B2108A7002008A600A00A0319A10A00
:101692002708FF00260884000A128A1500200A1271
:1016A2008A15B100003A0319FA2B643A0319602B28
:1016B2000D3A0319602B1A3A03190B2BE32A2B0854
:1016C200840083130008AE00840A0008AF000230D1
:1016D200A6002608AB07AF1F772B0330A60026080B
:1016E200A904AE09AF09AE0A0319AF0AB101B10AE2
:1016F200053031060319A22B3108A6002607123E37
:10170200840088300318013EFF000A128A15002067
:101712000A128A15A7000A128A1500200A128A15CF
:10172200A80028082F02031D982B27082E02031C4D
:10173200A22B0130A6002608B10705303106031D91
:101742007D2B290803390319B12B2D30A60030084F
:1017520084002608831780000130A6002608B007FF
:101762003108A6002608AA00FF30A6002608AA070C
:101772002A0A0319E32A0A30F8000030F9002A087D
:10178200A6002607123E840088300318013EFF009F
:101792000A128A1500200A128A15F0000A128A1506
:1017A20000200A128A15F1002F08F3002E08F20019
:1017B2000A168A1568260A128A157108FB00700833
:1017C200FA000A168A15EF240A128A157808303EA2
:1017D20083120313A7002708B1003108A6003008BE
:1017E20084002608831780000130A6002608B0076F
:1017F200B52B30088400831780010800831203137D
:10180200A0000A168A1531230A128A15F401F40A75
:1018120001300A168A156B270A128A150A30F0005F
:101822000030F100831203132008023E8400831368
:101832000008FC00FD017C08F2007D08F3000A1696
:101842008A110F200A128A157008303E0A168A156C
:101852002F260A128A150230FC007C08F40001309F
:101862000A168A156B270A128A150A30F000003010
:10187200F100831203132008023E84008313000840
:10188200FC00FD017C08F2007D08F3000A168A15AF
:10189200B5270A128A157008303E0A168A152F26B5
:1018A2000A128A150330FC007C08F40001300A1683
:1018B2008A156B270A128A153A300A168A152F26BC
:1018C2000A128A150430FC007C08F40001300A1662
:1018D2008A156B270A128A150A30F0000030F100CF
:1018E20083120313200A840083130008FC00FD0105
:1018F2007C08F2007D08F3000A168A110F200A12F2
:101902008A157008303E0A168A152F260A128A1581
:101912000530FC007C08F40001300A168A156B279A
:101922000A128A150A30F0000030F1008312031304
:10193200200A840083130008FC00FD017C08F200E9
:101942007D08F3000A168A15B5270A128A1570084F
:10195200303E0A168A152F260A128A150630FC0016
:101962007C08F40001300A168A156B270A128A15C0
:101972003A300A168A152F260A128A150730FC00F9
:101982007C08F40001300A168A156B270A128A15A0
:101992000A30F0000030F1008312031320088400A3
:1019A20083130008FC00FD017C08F2007D08F300AF
:1019B2000A168A110F200A128A157008303E0A167A
:1019C2008A152F260A128A150830FC007C08F400BA
:1019D20001300A168A156B270A128A150A30F0009E
:1019E2000030F100831203132008840083130008DF
:1019F200FC00FD017C08F2007D08F3000A168A153E
:101A0200B5270A128A157008303E0A168A152F2643
:101A12000A128A150930FC007C08F40001300A160B
:101A22008A156B270A128A1520300A168A152F2664
:101A32000A128A150A30FC007C08F40001300A16EA
:101A42008A156B270A128A15362D0530F5008A3061
:101A5200F6000A168A15A42608001430F50089300B
:101A6200F6000A168A15A42608008312031320081A
:101A7200033E840083130008003A0319262D013A1D
:101A820003192E2D442D08000A168A150D230A1259
:101A92008A1500300A168A158F240A128A157108CF
:101AA20083120313C4007008C3000A168A150D239B
:101AB2000A128A1501300A168A158F240A128A150B
:101AC200710883120313BD007008BC000A168A1540
:101AD2000D230A128A1502300A168A158F240A1259
:101AE2008A15710883120313C6007008C5004608E0
:101AF200B3004508B2000310B30CB20C4408330221
:101B0200031D852D4308320203189B2D4608B3009E
:101B12004508B2000310B30CB20CB209B309B20A01
:101B22000319B30A43083207C10044080318440AE0
:101B32003307B02D4309B2004409B300B20A0319B6
:101B4200B30A4608B5004508B4000310B50CB40C3E
:101B520032083407C10033080318330A3507C200BC
:101B620000304202053003194102031CE62DE33026
:101B7200A0004730A1003D30A2004208F900410810
:101B8200F8000A168A1586230A128A157808831223
:101B92000313A3007908A4007A08A5000A128A1583
:101BA20009220A128A1583120313200883160313CB
:101BB200A00083120313210883160313A1008312CA
:101BC2000313220883160313ED2D0030831603132B
:101BD200A0000030A1000030A2006D308312031378
:101BE200A0003230A1003F30A2003D08F9003C08BD
:101BF200F8000A168A1586230A128A1578088312B3
:101C02000313A3007908A4007A08A5000A128A1512
:101C120009220A128A15831203132008B60021082A
:101C2200B7002208B8003608A0003708A10038081B
:101C3200A20083160313200883120313A300831642
:101C42000313210883120313A4008316031322082B
:101C520083120313A5000A128A1509220A128A1591
:101C6200831203132008B9002108BA002208BB001E
:101C7200CD30A0004C30A1003F30A2003908A300B3
:101C82003A08A4003B08A5000A128A1509220A1282
:101C92008A15831203132008BE002108BF00220800
:101CA200C000C730A0008930A1003E08F0003F0804
:101CB200F1004008F2000A168A1165220A128A15FA
:101CC200710883120313A3007008A200A4300A1241
:101CD2008A15DC220A128A15F401F40A02300A1665
:101CE2008A156B270A128A15A430F5000130F60016
:101CF2000A168A15A4260A128A15831203133E08AD
:101D0200F0003F08F1004008F2000A168A1165222D
:101D1200831203134C087007CC004D0803184D0AB8
:101D22007107CD00013083160313A3070318A40A19
:101D32000030A40708008312031306108614061548
:101D42008615061AB72E0730F2005830F1005E30C1
:101D5200F000F00BAA2EF10BAA2EF20BAA2EB12E36
:101D620083120313061EB12E31300800861ACC2EC0
:101D72000730F2005830F1005E30F000F00BBF2E59
:101D8200F10BBF2EF20BBF2EC62E83120313861E3B
:101D9200C62E32300800061BE12E0730F200583002
:101DA200F1005E30F000F00BD42EF10BD42EF20BCA
:101DB200D42EDB2E83120313061FDB2E33300800D2
:101DC200861BF62E0730F2005830F1005E30F0002C
:101DD200F00BE92EF10BE92EF20BE92EF02E831215
:101DE2000313861FF02E2F300800061486100615E6
:101DF2008615061A0F2F0730F2005830F1005E30B8
:101E0200F000F00B022FF10B022FF20B022F092F21
:101E120083120313061E092F34300800861A242F5A
:101E22000730F2005830F1005E30F000F00B172F4F
:101E3200F10B172FF20B172F1E2F83120313861E7F
:101E42001E2F35300800061B392F0730F20058309C
:101E5200F1005E30F000F00B2C2FF10B2C2FF20B67
:101E62002C2F332F83120313061F332F3630080013
:101E7200861B4E2F0730F2005830F1005E30F00022
:101E8200F00B412FF10B412FF20B412F482F831200
:101E92000313861F482F7830080006148614061193
:101EA2008615061A672F0730F2005830F1005E30AF
:101EB200F000F00B5A2FF10B5A2FF20B5A2F612F11
:101EC20083120313061E612F37300800861A7C2FF7
:101ED2000730F2005830F1005E30F000F00B6F2F47
:101EE200F10B6F2FF20B6F2F762F83120313861EC7
:101EF200762F38300800061B912F0730F200583039
:101F0200F1005E30F000F00B842FF10B842FF20B06
:101F1200842F8B2F83120313061F8B2F3930080057
:101F2200861BA62F0730F2005830F1005E30F00019
:101F3200F00B992FF10B992FF20B992FA02F8312EF
:101F42000313861FA02F2D300800061486140615D1
:101F52008611061ABF2F0730F2005830F1005E30AA
:101F6200F000F00BB22FF10BB22FF20BB22FB92F00
:101F720083120313061EB92F43300800861AD42F8A
:101F82000730F2005830F1005E30F000F00BC72F3E
:101F9200F10BC72FF20BC72FCE2F83120313861E0E
:101FA200CE2F30300800061BE92F0730F2005830E0
:101FB200F1005E30F000F00BDC2FF10BDC2FF20BA6
:101FC200DC2FE32F83120313061FE32F3D3008009B
:101FD200861BFE2F0730F2005830F1005E30F00011
:101FE200F00BF12FF10BF12FF20BF12FF82F8312DF
:0E1FF2000313861FF82F2B3008006E300800F6
:10200400831603130716871513309300803094004A
:1020140028308312031394000800F601F11F1928D5
:10202400F009F109F00A0319F10AF601F60AF31F9F
:102034002428F209F309F20A0319F30A0130F4001F
:102044007408F606F701F8017008710403195B2897
:10205400F501F50AF11B3A2801300310F00DF10DDA
:10206400FF3E031D2F280130F4007408F5072C28C7
:1020740001300310F70DF80DFF3E031D3B287108D6
:102084007302031D472870087202031C502870084D
:10209400F2027108031CF303F302771401300310F6
:1020A400F10CF00CFF3E031D51280130F502031D15
:1020B4003A28760803196328F709F809F70A031977
:1020C400F80A7808F1007708F0000800F6000A160C
:1020D4008A15F5220A168A11D0300A168A15652344
:1020E4000A168A110318692876080A168A156523C0
:1020F4000A168A110A168A15ED220A168A11D13097
:102104000A168A1565230A168A110A168A151623D1
:102114000A168A11F400710884007408831380007D
:102124000130F7000030F80073087802031D9C2882
:10213400720877020318B8280A168A151F230A168C
:102144008A110A168A1516230A168A11F4007708CA
:102154007107F5007508840074088313800001304A
:10216400F7070318F80A0030F80796280A168A15A4
:1021740028230A168A110A168A15FD22080000303F
:102184000A168A159A230A168A118230F500DD3060
:10219400F400F40BCB28F50BCB28D02803300A1617
:1021A4008A15B4230A168A112130F5007630F4001A
:1021B400F40BDA28F50BDA28000003300A168A1526
:1021C400B4230A168A114830F5006C30F400F40B7D
:1021D400E928F50BE928000003300A168A15B42310
:1021E4000A168A1102300A168A15B4230A168A11AD
:1021F40002300A168A15B4230A168A1108300A1600
:102204008A15B4230A168A1100300A168A15B423D3
:102214000A168A110C300A168A15B4230A168A1172
:1022240000300A168A15B4230A168A1106300A16D3
:102234008A15B42308007308031925297208710448
:102244007004031D38290030F0000030F100003024
:10225400F20008000130F5007508F307013003109F
:10226400F20CF10CF00CFF3E031D3129FE30720517
:10227400031953292C290130F5007508F30701309F
:10228400F007003003180130F10700300318013063
:10229400F20701300310F20CF10CF00CFF3E031DA9
:1022A4004C29FF307205031966293D290230730257
:1022B400031C68290130F30201300310F00DF10D05
:1022C400F20DFF3E031D5F29F11F58297318702971
:1022D400FF30F0057F30F105FF30F2050310F30CF9
:1022E4007308F500F601F70110300310F50DF60D33
:1022F400F70DFF3E031D77297508F0047608F104F5
:102304007708F204740803190800F21708006A3009
:10231400F9007908F1000430F2000030F3000330D2
:102324000A168A1168200A168A11831203136B088D
:10233400F9007908EE000F306E05F9000A30FA0052
:102344007A08F0006E08FB0004300310FB0CFF3E1B
:10235400031DA7297B080A168A1575230A168A11F4
:102364007907FC007C0883120313EB006C08F90066
:102374007908EE000F306E05F9000A30FA007A0889
:10238400F0006E08FB0004300310FB0CFF3E031D3D
:10239400C6297B080A168A1575230A168A11790735
:1023A400FC007C0883120313EC006D08F900790823
:1023B400EE000F306E05F9000A30FA007A08F000DA
:1023C4006E08FB0004300310FB0CFF3E031DE529DF
:1023D4007B080A168A1575237907FC007C0883128A
:1023E4000313ED006A30080083120313871CFC29D1
:1023F400071908000810091089140A168A153123D0
:102404000A168A11F401F40A01300A168A156B2798
:102414000A168A119030F5008930F6000A168A15DA
:10242400A4260A168A11153083120313BA004B30FE
:10243400B900D130B800B80B1D2AB90B1D2ABA0B4C
:102444001D2A00000A168A15E1260A168A110A16A0
:102454008A1531230A168A11F401F40A01300A1686
:102464008A156B270A168A112530F5008930F60083
:102474000A168A15A4260A168A1115308312031324
:10248400BA004B30B900D130B800B80B472AB90BA9
:10249400472ABA0B472A00000A168A1531230A165E
:1024A4008A11F401F40A01300A168A156B270A16F8
:1024B4008A119030F5008930F6000A168A15A42690
:1024C4000A168A11642A7008F4007108F50072086B
:1024D400F6000310750D760DF7007708FD007D08F2
:1024E400031D7D2A0030F3000030F2000030F100BB
:1024F4000030F00008007008F4007108F50072085C
:10250400F60017300310F60CF50CF40CFF3E031D17
:10251400842A7408F7007708F800F117FF30F005F3
:10252400FF30F1050030F2057008F9007108FA0077
:102534007208FB00FC018E30FD02FD1FBF2A7D08DE
:10254400803A8F3E0318AF2A0030F3000030F200C7
:102554000030F1000030F000080001300310FC0CE2
:10256400FB0CFA0CF90CFF3E031DB02A0130F400F9
:102574007408FD070319DA2AAF2A18307D02031CF8
:10258400D72A0030F3000030F2000030F1000030B0
:10259400F00008000130F4000310F90DFA0DFB0DF2
:1025A400FC0DF40BCE2A0130FD027D08031DCC2A5C
:1025B40078080319E82AF909FA09FB09FC09F90A58
:1025C4000319FA0A0319FB0A0319FC0A7C08F3002D
:1025D4007B08F2007A08F1007908F00008006E30F8
:1025E400F5007508F6006E307606031DFF2A0A1200
:1025F4008A159C260A168A11F22A831203134B08A1
:10260400803AFF0080307F02031D0A2B02304A0209
:1026140003181D2B7608F500831203134A08DF3EC6
:1026240084007508831380000130CA070318CB0A9D
:102634000030CB077D2B831203134F08803AFF0031
:1026440080307F02031D282B02304E0203183B2BDF
:102654007608F500831203134E08E43E84007508DF
:10266400831380000130CE070318CF0A0030CF0750
:102674007D2B831203135108803AFF0080307F02C0
:10268400031D462B023050020318542B7608F50024
:10269400831203135008E93E8400750883138000F5
:1026A4000130782B831203135108803AFF008030E5
:1026B4007F02031D5F2B0330500203187D2B313042
:1026C4007606031D692B0530F0008A30702B3230FA
:1026D4007606031D7D2B1430F0008930F100D530CF
:1026E4000A168A154A24013083120313D0070318EB
:1026F400D10A0030D1077608080083120313A10120
:10270400F31F912BF009F109F209F309F00A0319F7
:10271400F10A0319F20A0319F30AA101A10AF71F26
:10272400A22BF409F509F609F709F40A0319F50AC5
:102734000319F60A0319F70A0130F8007808A1060C
:102744000030A5000030A4000030A3000030A20037
:1027540073087204710470040319F72BA001A00A12
:10276400F31BC22B0130F8000310F00DF10DF20D34
:10277400F30DF80BB62B0130F8007808A007B22B44
:102784000130F8000310A20DA30DA40DA50DF80B44
:10279400C42B73087702031DD92B72087602031D1C
:1027A400D92B71087502031DD92B70087402031C00
:1027B400EA2B7008F4027108031C710FF502720809
:1027C400031C720FF6027308031C730FF702221422
:1027D40001300310F30CF20CF10CF00CFF3E031D5E
:1027E400EB2B0130A002031DC22B21080319052C79
:1027F400A209A309A409A509A20A0319A30A031992
:10280400A40A0319A50A2508F3002408F2002308E2
:10281400F1002208F0000800770883120313FF0078
:10282400760884000A128A1500200A168A11203AB2
:10283400031D232C0130F6070318F70A0030F707AD
:102844000E2C7708FF00760884000A128A150020EF
:102854000A168A11093A03191C2CFB01FC01FA011E
:102864007708FF00760884000A128A1500200A16E9
:102874008A112D3A031D432C0130F8007808FA0719
:102884004F2C7708FF00760884000A128A1500206E
:102894000A168A112B3A031D552C0130F60703182A
:1028A400F70A0030F7077708FF00760884000A1259
:1028B4008A1500200A168A110A128A1104200A169F
:1028C4008A11031C8C2C7C08F1007B08F0000A3070
:1028D400F2000030F3000A168A1529240A168A1118
:1028E400770883120313FF00760884000A128A15FE
:1028F40000200A168A117007F80071080318710A7B
:10290400F9007808D03EFB0079080318013EFF3E29
:10291400FC004F2C7A0803199B2C7B09F8007C09D6
:10292400F900F80A0319F90A7808F6007908F7009B
:1029340008007C08F7007B08F60008006A30F900FC
:102944007908F1000330F2000030F30000300A1679
:102954008A1168200A168A11831203136A08F9007F
:102964007908EE000F306E05F9000A30FA007A0893
:10297400F0006E08FB0004300310FB0CFF3E031D47
:10298400BE2C7B0807390A168A1575230A168A1184
:102994007907FC007C0883120313EA006B08F90032
:1029A4007908EE000F306E05F9000A30FA007A0853
:1029B400F0006E08FB0004300310FB0CFF3E031D07
:1029C400DE2C7B080A168A1575230A168A117907E4
:1029D400FC007C0883120313EB006C1F182DEC1E03
:1029E400F62CED01ED0AF72CED016C08F9007908DD
:1029F400EE000F306E05F9000A30FA007A08F00094
:102A04006E08FB0004300310FB0CFF3E031D052D74
:102A14007B0801390A168A1575230A168A11790763
:102A2400FC007C0883120313EC00392D6C08F900B8
:102A34007908EE000F306E05F9000A30FA007A08C2
:102A4400F0006E08FB0004300310FB0CFF3E031D76
:102A5400262D7B080A168A1575237907FC007C0845
:102A640083120313EC000230F9007908ED006A3098
:102A74000800FC000A30F0000030F1007B088312EB
:102A84000313A000A1012008F2002108F3000A1694
:102A94008A15B5270A168A11700883120313A20037
:102AA4007108A3000A30F0000030F1007B08A40094
:102AB400A5012408F2002508F3000A168A110F2044
:102AC4000A168A11700883120313A6000330031038
:102AD400A60DFF3E031D692D0310260D2204A70039
:102AE4002708EA000A30F0000030F1007A08A0005C
:102AF400A1012008F2002108F3000A168A15B5275F
:102B04000A168A11700883120313A2007108A30025
:102B14000A30F0000030F1007A08A400A50124086E
:102B2400F2002508F3000A168A110F200A168A11EA
:102B3400700883120313A60003300310A60DFF3E92
:102B4400031D9F2D0310260D2204A7002708EB0068
:102B54000A30F0000030F1007908A000A10120083B
:102B6400F2002108F3000A168A15B5270A168A11FD
:102B7400700883120313A2007108A3000A30F00046
:102B84000030F1007908A400A5012408F20025080A
:102B9400F3000A168A110F200A168A11700883128C
:102BA4000313A60003300310A60DFF3E031DD52D0D
:102BB4000310260D2204A7002708EC00E82D6C174B
:102BC400F02D6030A0002008EC04F02D7C08313A90
:102BD4000319E12D033A0319E32DF02D6A30A00007
:102BE4002008F1000330A1002108F20000300A1689
:102BF4008A15BF250800FC000A30F0000030F100FF
:102C04007B0883120313A000A1012008F20021080D
:102C1400F3000A168A15B5270A168A11700883125A
:102C24000313A2007108A3000A30F0000030F10081
:102C34007B08A400A5012408F2002508F3000A1665
:102C44008A110F200A168A11700883120313A60032
:102C540003300310A60DFF3E031D2B2E0310260D7B
:102C64002204A7002708EA000A30F0000030F1002F
:102C74007C08A000A1012008F2002108F3000A1634
:102C84008A15B5270A168A11700883120313A20045
:102C94007108A3000A30F0000030F1007C08A400A1
:102CA400A5012408F2002508F3000A168A110F2052
:102CB4000A168A11700883120313A6000330031046
:102CC400A60DFF3E031D612E0310260D2204A7004E
:102CD4002708EB000A30F0000030F1007908A0006A
:102CE400A1012008F2002108F3000A168A15B5276D
:102CF4000A168A11700883120313A2007108A30034
:102D04000A30F0000030F1007908A400A50124087D
:102D1400F2002508F3000A168A110F200A168A11F8
:102D2400700883120313A60003300310A60DFF3EA0
:102D3400031D972E0310260D2204A7002708EC007C
:102D44000A30F0000030F1007A08A000A101200848
:102D5400F2002108F3000A168A15B5270A168A110B
:102D6400700883120313A2007108A3000A30F00054
:102D74000030F1007A08A400A5012408F200250817
:102D8400F3000A168A110F200A168A11700883129A
:102D94000313A60003300310A60DFF3E031DCD2E22
:102DA4000310260D2204A7002708ED006A30A000B6
:102DB4002008F1000430A1002108F20003300A16B3
:102DC4008A15BF2508000A128A1187220A168A1159
:102DD4009B2F0130E8000030E9006908803AFF00C9
:102DE40080307F02031DF82E7830680203189B2F71
:102DF4003C30F0000030F100831203136908F30043
:102E04006808F2000A168A110F200A168A1171083E
:102E140083120313E5007008E4003C30F000003036
:102E2400F1006908F3006808F2000A168A15B5274C
:102E34000A168A11710883120313E7007008E6006A
:102E44006A30A0008930A1006508A3006408A200CC
:102E54006708A5006608A400A4300A128A15DC22BB
:102E64000A168A110A168A1531230A168A11F401E0
:102E7400F40A01300A168A156B270A168A11A4303F
:102E8400F5000130F6000A168A15A4260A168A11DE
:102E9400093083120313C9001E30C800EB30C70089
:102EA400C70B522FC80B522FC90B522F00000A1602
:102EB4008A11F6210A168A118312031307189B2F0D
:102EC4007730680669040319692F0919922F0810CD
:102ED4000A168A1531230A168A11F401F40A0130FC
:102EE4000A168A156B270A168A119B30F50088305A
:102EF400F6000A168A15A4260A168A1183120313E9
:102F040009108914CB30C900ED30C8004C30C7001B
:102F1400C70B8A2FC80B8A2FC90B8A2F912F912F89
:102F2400013083120313E8070318E90A0030E907A4
:102F3400EF2E83120313071CEB2E0A168A11F621B7
:102F44000A168A110A168A1531230A168A11F401FF
:102F5400F40A01300A168A156B270A168A113330CF
:102F6400F5008930F6000A168A15A4260A168A1175
:102F74000A128A1545250A168A110B308312031387
:102F8400C9002630C8006630C700C70BC72FC80B5E
:102F9400C72FC90BC72FCE2F8312031309199B2FD9
:102FA40008100A168A1531230A168A11F401F40A44
:102FB40001300A168A156B270A168A119B30F50010
:102FC4008830F6000A168A15A4260A168A11831276
:102FD4000313091089140B30C9002630C800663069
:102FE400C700C70BF32FC80BF32FC90BF32FFA2F0E
:0C2FF4000A168A15F7250A168A11FF2F0D
:1035CA00F000831203130C1EE62A70089900080003
:1035DA0083160313911483128C1DF02A8C11080090
:1035EA0083160313111483128C1DF82A8C110800F8
:1035FA0083160313111583128C1D002B8C110800DE
:10360A0064008001840A0406031900340406062BA8
:10361A008130831203139F008230831603139F00A5
:10362A00080083160313911583128C1D192B8C1114
:10363A0013080800831603139112111683128C1DA6
:10364A00232B8C110800831603139116111683126B
:10365A008C1D2C2B8C11080000300A168A15B423F5
:10366A000A168A1501300A168A15B423080083122D
:10367A0003138601F0308316031386007F30F000AF
:10368A00700881050800F0007008831203178D0086
:10369A00831603178C130C14831203170C080800E3
:1036AA006E30F3007308F4006E307406031D632B4A
:1036BA000A128A159C260A168A15562B74080800BF
:1036CA00F00070088312031393008C1D6A2B8C116F
:1036DA0083160313111B732B03100800031408002D
:1036EA00F300F201731C7D2B7008F1007108F207D8
:1036FA000310F00D0310F30C7308031D772B7208E7
:10370A0008007808F0007908F100F2018E30FB0019
:10371A007B08F300F4010A168A111D217008F800CB
:10372A007108F9007208FA000800F000701CA12B59
:10373A00831203130816A42B831203130812F01C16
:10374A00A82B8816A92B8812701DAD2B0817AE2B33
:10375A000813F01DB22B8817080088130800F3001D
:10376A0083120313081173080A168A159A230A1674
:10377A008A158312031388151A30F200F830F10003
:10378A00F10BC52BF20BC52B000083120313881112
:10379A000800B430F1008930F2000A168A156C2448
:1037AA000A168A150D300A168A15E5220A168A158E
:1037BA001A30F5005E30F4008630F300F30BE32B89
:1037CA00F40BE32BF50BE32B00000800F200720860
:1037DA00831203178D0070088C00831603178C134D
:1037EA000C150B08F1007108F3008B0155308D00A0
:1037FA00AA308D008C1473088B000C1183120313EA
:10380A000D1E032C0D1208006E30F3007308F4002D
:10381A006E307406031D172C0A128A159C260A1686
:10382A008A150A2C7408F300831203136808AD3E44
:10383A0084007308831380000130E8070318E90A3B
:10384A000030E90774080800F401F501701C332CF4
:10385A007208F4070318F50A7308F5070130031014
:10386A00F20DF30DFF3E031D342C01300310F10C51
:10387A00F00CFF3E031D3B2C70087104031D2B2C1A
:10388A007508F1007408F0000800F4007408F200EA
:10389A007208F300710883120313FF007008840092
:1038AA000A128A1500200A168A15F2007308840083
:1038BA007208831380000008031908000130F2001F
:1038CA007208F3070130F0070318F10A4F2C720847
:1038DA0083120313FF00710884000A128A1500205C
:1038EA000A168A15003A031908007208831203138C
:1038FA00FF00710884000A128A1500200A168A1528
:10390A000A168A15E5220A168A150130F1070318E4
:10391A00F20A6C2CF40008307402031C972CF00194
:10392A00F1010800C530F2007208831203139F05E3
:10393A007408F20002300310F20DFF3E031DA02CA2
:10394A000310720DF30073089F040630F300303041
:10395A00F200F20BAE2CF30BAE2C00008312031311
:10396A001F151F19B62C1E08F100831603131E0813
:10397A00F00008006E30F3007308F800F601F70152
:10398A006E307806031DED2C0A128A159C260A163B
:10399A008A15F3007308F8000230F500C730F40006
:1039AA008830F300F30BD72CF40BD72CF50BD72C5C
:1039BA0000000130F6070318F70A0030F707143041
:1039CA0076067704031DC52C6E30F3007308F800E1
:1039DA00780808007808790403191C2DFD01FD0AEE
:1039EA00F91B032D01300310F80DF90DFF3E031DDD
:1039FA00F82C0130FC007C08FD07F52C79087B02C5
:103A0A00031D092D78087A02031C112D7808FA0281
:103A1A007908031CFB03FB0201300310F90CF80CB4
:103A2A00FF3E031D122D0130FD02031D032D7B08ED
:103A3A00F9007A08F800080083160313071387179A
:103A4A00831203132608F0002708F1000030F11B47
:103A5A00FF30F200F3000030F7001330F6001230A6
:103A6A00F500D030F4000A168A117F237008FF3E51
:103A7A008316031399001815181283120313981743
:103A8A0018169812831603130C128C161813831225
:103A9A000313181383160313981298160800F301D8
:103AAA00F4017408803AFF0080307F02031D5F2D05
:103ABA000C30730203187F2D73080A168A154823DF
:103ACA000A168A15F1007308AD3E84007108831343
:103ADA0080000130F3070318F40A0030F407740871
:103AEA00803AFF0080307F02031D7D2D0C30730267
:103AFA00031C612D8230F200DD30F100F10B832DC1
:103B0A00F20B832D882D0800F601F7017708803A19
:103B1A00FF0080307F02031D942D0C3076020318BB
:103B2A00B52D7608AD3E840083130008F4007408AE
:103B3A00F00076080A168A15EB230A168A15013050
:103B4A00F6070318F70A0030F7077708803AFF00EC
:103B5A0080307F02031DB32D0C307602031C962D94
:103B6A008230F500DD30F400F40BB92DF50BB92DD8
:103B7A00BE2D0800F5000A168A15F5220A168A15BE
:103B8A00D0300A168A1565230A168A150318C02D1D
:103B9A0075080A168A1565230A168A15F601F701A9
:103BAA007208F300F40174087702031DDE2D73080E
:103BBA0076020318F32D76087107F3007308840060
:103BCA00831300080A168A1565230A168A15013016
:103BDA00F6070318F70A0030F707D52D0A168A15D3
:103BEA00FD2208000A168A1531230A168A15F401DD
:103BFA00F40A01300A168A156B270A168A15AB30A1
:103C0A0083120313A0008830A1008316031324082B
:103C1A00F1002308F000831203134D08F3004C0847
:103C2A00F2000A168A110F200A168A1571088312E1
:103C3A000313A3007008A200A4300A128A15DC221A
:103C4A000A168A15A430F5000130F6000A168A15FC
:103C5A00A4260800F40074080F39F1007108F20074
:103C6A007408F039F1007108F30083120313081580
:103C7A007308F10004300310F10CFF3E031D402EBF
:103C8A0071080A168A159A230A168A1583120313CB
:103C9A0088154230F100F10B502E000083120313F5
:103CAA00881172080A168A159A230A168A15831227
:103CBA00031388154230F100F10B612E00008312C4
:103CCA00031388110800F501F6017008710403193D
:103CDA009F2EF701F70AF11B7E2E01300310F00D1B
:103CEA00F10DFF3E031D732E0130F4007408F7072F
:103CFA00702E01300310F50DF60DFF3E031D7F2EC9
:103D0A0071087302031D8B2E70087202031C942E15
:103D1A007008F2027108031CF303F30275140130F0
:103D2A000310F10CF00CFF3E031D952E0130F70233
:103D3A00031D7E2E7608F1007508F0000800FA01CE
:103D4A00FB017A087507F8007608F7000318F70AE6
:103D5A00FA1BF7037708F900790883120313FF00A7
:103D6A00780884000A128A1500200A168A15003A71
:103D7A00031908007A087507F8007608F70003188F
:103D8A00F70AFA1BF7037708F90079088312031375
:103D9A00FF00780884000A128A1500200A168A157C
:103DAA000A168A152F260A168A150130FA070318E9
:103DBA00FB0A0030FB07A62E803083120313A600ED
:103DCA002530A7000A168A1521250A168A151A30DF
:103DDA0083120313B7005E30B6008630B500B50B08
:103DEA00F42EB60BF42EB70BF42E00000A168A1521
:103DFA00CE230A168A151A3083120313B7005E30CF
:103E0A00B6008630B500B50B082FB60B082FB70BD6
:103E1A00082F00000A168A1524270A168A151A304E
:103E2A0083120313B7005E30B6008630B500B50BB7
:103E3A001C2FB60B1C2FB70B1C2F000008001730C5
:103E4A0083120313A0008930A100AD30B2003208FA
:103E5A00A20090300A128A15DC220A168A159030BE
:103E6A00F1000130F2000A168A156C240A168A1526
:103E7A001A3083120313B4005E30B3008630B200E6
:103E8A00B20B452FB30B452FB40B452F00001C3046
:103E9A00F1008830F2000A168A156C240A168A156F
:103EAA001A300A168A15E5220A168A151A3083125A
:103EBA000313B4005E30B3008630B200B20B632F36
:103ECA00B30B632FB40B632F00000800F7007703CE
:103EDA00031D902F74087F3EF5007508FA007A08D2
:103EEA00F50004300310F50CFF3E031D772F75080B
:103EFA00F6007608F8007A080F39F5007508F90017
:103F0A0078080A168A15B4230A168A1579080A1631
:103F1A008A15B423080002307706031D08007408C6
:103F2A00BF3EF5007508FA007A08F5000430031060
:103F3A00F50CFF3E031D9C2F7508F6007608F80065
:103F4A007A080F39F5007508F90078080A168A15F3
:103F5A00B4230A168A1579080A168A15B4230800A2
:103F6A00F601F31FBF2FF209F309F20A0319F30A44
:103F7A00F601F60AF11FC62FF009F109F00A031932
:103F8A00F10A700871040319F32FF501F50AF11B00
:103F9A00DA2F01300310F00DF10DFF3E031DCF2F74
:103FAA000130F4007408F507CC2F71087302031D61
:103FBA00E02F70087202031CE82F7008F2027108E1
:103FCA00031CF303F30201300310F10CF00CFF3E63
:103FDA00031DE92F0130F502031DDA2F76080319B4
:103FEA00FB2FF209F309F20A0319F30A7308F10025
:063FFA007208F00008004F
:02400E007AFF37
:00000001FF
